:1000000000800020F9010000770200006D4C010023
:100010007B0200007D0200007F0200000000000063
:10002000000000000000000000000000810200004D
:10003000830200000000000085020000870200002B
:100040005149010059490100614901006949010014
:100050007149010079490100814901008949010084
:100060009149010099490100A1490100A9490100F4
:10007000B1490100B9490100C1490100C949010064
:10008000D1490100D9490100E1490100E9490100D4
:10009000F1490100F9490100014A0100094A010042
:1000A000114A0100194A0100214A0100294A0100B0
:1000B000314A0100394A0100414A0100494A010020
:1000C000514A0100594A0100614A0100694A010090
:1000D000714A0100794A0100814A0100894A010000
:1000E000914A0100994A0100A14A0100A94A010070
:1000F000B14A010085780000B94A0100C14A0100F7
:10010000C94A0100D14A0100D94A0100E14A01006F
:10011000E94A0100F14A0100F94A0100014B0100DE
:10012000094B0100114B0100194B0100214B01004B
:10013000294B0100314B010079540000394B01007B
:10014000414B0100494B0100514B0100594B01004B
:10015000ED690000816A0000614B0100694B0100FC
:10016000714B0100794B0100814B0100894B01006B
:10017000914B0100994B0100A14B0100A94B0100DB
:10018000B14B0100B94B0100C14B0100C94B01004B
:10019000D14B0100D94B0100E14B0100E94B0100BB
:1001A000F14B0100F94B0100014C0100094C010029
:1001B000114C0100194C0100214C01004874010050
:1001C00000000020C8090000487401000080FF1FE3
:1001D000000000004874010000000014000000004E
:1001E000C8090020480500000080FF1F0000000033
:1001F000000000140000000010B572B60AF060F9AB
:100200000E4B0F4A934208D203F10C049A685968C6
:10021000186800F019F82346F3E70A4A934207D218
:100220001C46596854F8080B00F01CF82346F4E704
:100230000BF0B8FA62B606F02BF9FEE7BC0100003D
:10024000E0010000F80100000023934209D210B43D
:1002500050F8044B41F8044B04339342F8D310BCDC
:1002600070477047002303E0002240F8042B04335A
:100270008B42F9D37047FEE7FEE7FEE7FEE7FEE7B5
:10028000FEE7FEE7FEE7FEE7FEE7FFFFFFFFFFFFFB
:10029000FFFFFFFFFFFFFFFFFFFFFFFFFFFFFFFF6E
:1002A000FFFFFFFFFFFFFFFFFFFFFFFFFFFFFFFF5E
:1002B000FFFFFFFFFFFFFFFFFFFFFFFFFFFFFFFF4E
:1002C000FFFFFFFFFFFFFFFFFFFFFFFFFFFFFFFF3E
:1002D000FFFFFFFFFFFFFFFFFFFFFFFFFFFFFFFF2E
:1002E000FFFFFFFFFFFFFFFFFFFFFFFFFFFFFFFF1E
:1002F000FFFFFFFFFFFFFFFFFFFFFFFFFFFFFFFF0E
:10030000FFFFFFFFFFFFFFFFFFFFFFFFFFFFFFFFFD
:10031000FFFFFFFFFFFFFFFFFFFFFFFFFFFFFFFFED
:10032000FFFFFFFFFFFFFFFFFFFFFFFFFFFFFFFFDD
:10033000FFFFFFFFFFFFFFFFFFFFFFFFFFFFFFFFCD
:10034000FFFFFFFFFFFFFFFFFFFFFFFFFFFFFFFFBD
:10035000FFFFFFFFFFFFFFFFFFFFFFFFFFFFFFFFAD
:10036000FFFFFFFFFFFFFFFFFFFFFFFFFFFFFFFF9D
:10037000FFFFFFFFFFFFFFFFFFFFFFFFFFFFFFFF8D
:10038000FFFFFFFFFFFFFFFFFFFFFFFFFFFFFFFF7D
:10039000FFFFFFFFFFFFFFFFFFFFFFFFFFFFFFFF6D
:1003A000FFFFFFFFFFFFFFFFFFFFFFFFFFFFFFFF5D
:1003B000FFFFFFFFFFFFFFFFFFFFFFFFFFFFFFFF4D
:1003C000FFFFFFFFFFFFFFFFFFFFFFFFFFFFFFFF3D
:1003D000FFFFFFFFFFFFFFFFFFFFFFFFFFFFFFFF2D
:1003E000FFFFFFFFFFFFFFFFFFFFFFFFFFFFFFFF1D
:1003F000FFFFFFFFFFFFFFFFFFFFFFFFFFFFFFFF0D
:10040000FFFFFFFFFFFFFFFFFFFFFFFFFEFFFFFFFD
:10041000FFFFFFFFFFFFFFFFFFFFFFFFFFFFFFFFEC
:10042000FFFFFFFFFFFFFFFFFFFFFFFFFFFFFFFFDC
:10043000FFFFFFFFFFFFFFFFFFFFFFFFFFFFFFFFCC
:1004400090F800F06DE9024520F007016FF0000C14
:1004500010F0070491F820F040F049804FF00004BC
:100460006FF00700D1E9002391F840F000F1080097
:1004700082FA4CF2A4FA8CF283FA4CF3A2FA8CF3CF
:100480004BBBD1E9022382FA4CF200F10800A4FA36
:100490008CF283FA4CF3A2FA8CF3E3B9D1E904238A
:1004A00082FA4CF200F10800A4FA8CF283FA4CF3C1
:1004B000A2FA8CF37BB9D1E9062301F1200182FA7B
:1004C0004CF200F10800A4FA8CF283FA4CF3A2FA81
:1004D0008CF3002BC6D0002A04BF04301A4612BA8F
:1004E000B2FA82F2FDE8024500EBD2007047D1E992
:1004F000002304F00305C4F100004FEAC50514F021
:10050000040F91F840F00CFA05F562EA05021CBFF1
:1005100063EA050362464FF00004A9E7FFFFFFFF0F
:10052000A2EB0300704700BF02780B78012A28BFB6
:100530009A42F5D16DE9044540EA0104CDE902672C
:100540006FF0000C4FEA447212B380EA010414F019
:10055000070F6AD100F0070420F0070004F003053C
:1005600021F007014FEAC505F0E8042314F0040F59
:10057000F1E804670CFA05F462EA040266EA04068C
:100580000AD063EA0403624667EA0407664603E0AA
:10059000F0E80423F1E8046782FA4CF582EA0604E5
:1005A000A4FA8CF46CBB83FA4CF583EA0705A5FA30
:1005B0008CF595B950E9022351E9026782FA4CF5AE
:1005C00082EA0604A4FA8CF483FA4CF583EA070560
:1005D000A5FA8CF52543DBD09CB92DBAB5FA85F484
:1005E00024F0070427FA04F1DDE9026723FA04F393
:1005F00003F0FF0001F0FF01FDE80445A0EB01005E
:10060000704724BAB4FA84F424F0070426FA04F1FB
:10061000DDE9026722FA04F202F0FF0001F0FF01B7
:10062000FDE80445A0EB0100704714F0030F3CD136
:1006300010F0030428D150F8082B51F8083B82FA37
:100640004CF582EA0305A5FA8CF55DB950F8042C47
:1006500051F8043C82FA4CF582EA0305A5FA8CF5C0
:10066000002DE8D02DBAB5FA85F424F0070423FA5A
:1006700004F122FA04F202F0FF0001F0FF01FDE8AC
:100680000445A0EB010070474FEAC40420F00300CA
:1006900050F8082B21F0030151F8083B0CFA04F440
:1006A00062EA040263EA0403C9E710F003041AD003
:1006B000A1EB040120F00300E40750F8042B06D05E
:1006C0000FD28B785FFAA2F4E41A06D12BB1CB7863
:1006D0005FFAB2F4E41A00D11BB920465DF8104B62
:1006E000704701F1040150F8042BCC0721F00301FD
:1006F00051F8043B48D824D222F07F4482FA4CF5CA
:1007000094EA1325A5FA8CF50AD165B951F8043B92
:1007100084EA0204B4EB036F0ED150F8042BEBE72C
:100720004FEA132355E035F07F454DD10878FDE8B9
:100730000445C0F1000070474FEA126203F0FF0366
:1007400047E002EA1C4482FA4CF594EA1345A5FA04
:100750008CF50AD165B951F8043B84EA0204B4EB84
:10076000034F0CD150F8042BEBE74FEA134330E072
:1007700015EA1C4528D10B884FEA124229E04FEABE
:10078000124203EA1C4324E002F0FF0482FA4CF513
:1007900094EA1365A5FA8CF50AD165B951F8043BC2
:1007A00084EA0204B4EB032F09D150F8042BEBE7E1
:1007B0004FEA13630DE015F0FF0F05D10B684FEA08
:1007C000122223F07F4304E04FF00000FDE80445CF
:1007D000704712BA1BBA82FA4CF482EA0304A4FAF4
:1007E0008CF5B5FA85F402FA04F203FA04F34FEA41
:1007F0001260FDE80445A0EB13607047FFFFFFFFA8
:1008000001F0FF01102A2BDB10F0070F08D010F8C1
:10081000013B013A8B422DD010F0070F42B3F6D1C5
:10082000F0B441EA012141EA014122F007047FF0DE
:1008300000070023F0E80256083C85EA010586EA35
:10084000010685FA47F5A3FA87F586FA47F6A5FA71
:1008500087F68EB9EED1F0BC01F0FF0102F007027D
:1008600032B110F8013B013A83EA010313B1F8D128
:100870000020704701387047002D06BF3546033809
:10088000073815F0010F07D1013015F4807F02BF42
:10089000013015F4C03F0130F0BC0138704700BF93
:1008A000B0B58AB008AF78607B684FF000021A617B
:1008B0007B684FF07E525A617B684FF000029A616C
:1008C0007B684FF00002DA617B684FF07E521A625B
:1008D0007B684FF000025A627B684FF000029A6218
:1008E0007B684FF07E52DA627B684FF000021A6339
:1008F0007B6801225A647B6803F190007B6803F1F6
:1009000078017B6803F180047B6803F1880500238C
:1009100006934FF000024FF00003CDE904234FF09F
:1009200000024FF00003CDE902230DA3D3E9002319
:10093000CDE900232B46224600F01EFD0A4B1B6822
:100940000133094A1360084B1B68012B00D9FEE7ED
:100950007B6818460837BD46B0BD00BFAFF30080C6
:100960007B14AE47E17A943F8C0B0020FFFFFFFF22
:100970002DE9F04387B004AF7860002006F080FBDB
:1009800002467B681A60042006F07AFB02467B6808
:100990005A602C2006F074FB02467B681A613020F6
:1009A00006F06EFB02467B685A61342006F068FB55
:1009B00002467B689A61202006F062FB02467B6853
:1009C000DA61242006F05CFB02467B681A6228206C
:1009D00006F056FB02467B685A62142006F050FB74
:1009E00002467B689A62182006F04AFB02467B6842
:1009F000DA621C2006F044FB02467B681A6338204A
:100A000006F080FB0346002B14BF01230023DAB25B
:100A10007B6883F834203C2006F032FB02467B687A
:100A20009A63402006F02CFB02467B68DA63442080
:100A300006F026FB02467B681A6405F07BFF7B68A4
:100A400003F1900122A3D3E90023CDE900234FF065
:100A500000024FF00003084614F036FB7B68903329
:100A60000521184614F0F5FA7B6803F190067B68BF
:100A70009B6B184609F09CFE804689467B68DB6BC1
:100A8000184609F095FE04460D467B681B6C184617
:100A900009F08EFE02460B46CDE90223CDE9004562
:100AA00042464B46304607F08FFB7B68903301216E
:100AB000184614F076FB7B6890330021184614F03A
:100AC000C9FB00BF0C37BD46BDE8F083AFF3008023
:100AD0000000000000FEAF4080B582B000AF78603B
:100AE000994B1B78BFF35B8FDBB203F00103002B44
:100AF0000CBF01230023DBB2002B18D0924811F069
:100B000071FC0346002B14BF01230023DBB2002B32
:100B10000DD07B685B6C19468C4805F0C3FF8C4A8E
:100B20008C498A4814F08BF8874811F077FC874885
:100B300006F02EF90346002B00F0FC807B685B6C0E
:100B40001946824806F056F90921834813F08FFDB3
:100B50000346002B14BF01230023DAB27B6883F81D
:100B600048207B6893F84830012B0AD17B6893F8C2
:100B70003430002B05D17B68DB68184600F060FB41
:100B8000D6E07B6893F84830012B40F08C807B687E
:100B900093F83430012B40F086807B689B684FF0DF
:100BA000000118460AF030FC0346002B39D07B6860
:100BB0009B68184609F0FCFD02460B467968C1E9BE
:100BC0002223786804F0A4FB0346184609F0F0FDE0
:100BD00002460B467968C1E91E237B6890331846AC
:100BE00007F0FCF90346002B56D07B68D3E92001BF
:100BF0004FF00002594B09F033FE02460B461046F7
:100C000019464FA3D3E9002309F054FF02460B46CF
:100C1000104619460AF0DEF802467B68C3F8082140
:100C20003AE079684FF000024FF00003C1E9222357
:100C3000786804F06DFB0346184609F0B9FD0246DA
:100C40000B467968C1E91E237B689033184607F08C
:100C5000C5F90346002B1AD07B68D3E920014FF079
:100C600000023E4B09F0FCFD02460B4610461946B9
:100C700033A3D3E9002309F01DFF02460B461046BB
:100C800019460AF0A7F802467B68C3F808217B687A
:100C90004FF00002C3F808217B68D3F808311846EA
:100CA00000F0CEFA44E07B6893F84830002B3FD147
:100CB0007B6893F83430012B3AD179684FF0000209
:100CC0004FF00003C1E92223786804F021FB0346BA
:100CD000184609F06DFD02460B467968C1E91E23EE
:100CE0007B689033184607F079F90346002B1AD039
:100CF0007B68D3E920014FF00002184B09F0B0FDEA
:100D000002460B46104619460DA3D3E9002309F00D
:100D1000D1FE02460B46104619460AF05BF8024621
:100D20007B68C3F808217B684FF00002C3F80821F4
:100D300000F0D2F900BF0837BD4680BDAFF3008098
:100D40000000000000FEAF40940B0020900B00203C
:100D5000C00900200D6B000080F00F40000028400B
:100D600080B582B000AF7860112005F085FC0346A5
:100D700018460AF035F90346114918460AF088F971
:100D800003461A467B68DA647B68DB6C184609F018
:100D90000FFD09A3D3E9002309F0D4FF0346002B7C
:100DA00003D07B684FF00002DA647B68DB6C184686
:100DB0000837BD4680BD00BF666666666666E63F6C
:100DC0009BC7533BFFFFFFFF80B584B000AF786047
:100DD00039604FF00003FB607B681B68544918467C
:100DE0000AF0EAFA0346002B19D0386809F0E0FC53
:100DF00041A3D3E9002309F07BFB02460B461046D2
:100E000019463FA3D3E9002309F054FE02460B46DE
:100E10001046194609F0DEFF0346FB6044E07B689C
:100E20001B68444918460AF0C7FA0346002B19D03C
:100E3000386809F0BDFC34A3D3E9002309F058FB5E
:100E400002460B461046194631A3D3E9002309F0A8
:100E500031FE02460B461046194609F0BBFF034619
:100E6000FB6021E07B681B68334918460AF0A4FA4E
:100E70000346002B18D0386809F09AFC26A3D3E962
:100E8000002309F035FB02460B461046194624A301
:100E9000D3E9002309F00EFE02460B461046194620
:100EA00009F098FF0346FB60F86809F081FC1EA377
:100EB000D3E9002309F046FF0346002B08D07B68E6
:100EC0004FF00002DA607B684FF000029A6005E0A4
:100ED0007B683A689A607B68FA68DA607B689B682E
:100EE000184609F065FC02460B467968C1E92223E1
:100EF00000BF1037BD4680BD7B14AE47E19A62400B
:100F00003D0AD7A370FD6D40A4703D0AD7BB6B406E
:100F1000C3F5285C8F56744048E17A14AEE37B40F9
:100F2000295C8FC2F5E08540666666666666E63FC8
:100F30000000FA4400803B4500A08C45FFFFFFFF06
:100F400080B582B000AF78603960386809F030FC55
:100F50004FA3D3E9002309F0F5FE0346002B08D088
:100F60007B684FF00002DA607B684FF000029A6005
:100F70007FE07B683A68DA607B681B6852491846F4
:100F80000AF01AFA0346002B20D0386809F010FC4A
:100F900041A3D3E9002309F063FC02460B46104647
:100FA000194609F017FF0346184609F001FC3CA357
:100FB000D3E9002309F09EFA02460B461046194673
:100FC00009F008FF02467B689A6052E07B681B6864
:100FD0003E4918460AF0F0F90346002B20D0386845
:100FE00009F0E6FB30A3D3E9002309F039FC0246FF
:100FF0000B461046194609F0EDFE0346184609F067
:10100000D7FB2BA3D3E9002309F074FA02460B4661
:101010001046194609F0DEFE02467B689A6028E019
:101020007B681B682A4918460AF0C6F90346002B5C
:101030001FD0386809F0BCFB1FA3D3E9002309F0D7
:101040000FFC02460B461046194609F0C3FE034644
:10105000184609F0ADFB1AA3D3E9002309F04AFAB8
:1010600002460B461046194609F0B4FE02467B685C
:101070009A607B689B68184609F09AFB02460B460B
:101080007968C1E9222300BF0837BD4680BD00BF93
:10109000666666666666E63F3D0AD7A370FD6D40EC
:1010A0007B14AE47E19A6240C3F5285C8F567440CA
:1010B000A4703D0AD7BB6B40295C8FC2F5E0854028
:1010C00048E17A14AEE37B400000FA4400803B45DF
:1010D00000A08C45FFFFFFFF80B584B002AF09215F
:1010E0004F4813F013FE0346002B14BF01230023C7
:1010F000DAB24C4B1A704C4B1B78032B00F28280F7
:1011000001A252F823F000BF19110000571100008E
:1011100077110000D111000000220C21404813F08B
:10112000DBFD01220D21414813F0D6FD3D4B1B781C
:10113000012B6BD101220C21394813F0CDFD002386
:101140003B4A3C493C4808F09BFB05F017FB364BFB
:1011500001221A705AE001220C21314813F0BCFD23
:1011600001220D21314813F0B7FD05F0A1FB2E4BF4
:1011700002221A704BE001220C21294813F0ACFD29
:10118000284B1B78012B1AD12C4B1B68184609F0F1
:101190000FFB21A3D3E9002309F0F2FD0346002B46
:1011A00005D000220D21214813F096FD04E0012214
:1011B0000D211E4813F090FD05F07AFB27E0012277
:1011C0000D211A4813F088FD174B03221A701EE0F8
:1011D0000623FB712023BB71BB1DFA79012100910D
:1011E0007421154805F00AFB00220C210C4813F06D
:1011F00073FD01220D210D4813F06EFD0A4B0022F4
:101200001A7004E0084B00221A7000E000BF00BF13
:101210000837BD4680BD00BF666666666666E63F07
:1012200080F00F40090F00200A0F002000F00F404F
:10123000B5670000E40C0020007006400C0D002093
:1012400080B582B000AF7860786809F0B1FA40A349
:10125000D3E9002309F080FD0346002B07D0424B61
:101260004FF000021A60414B00221A806CE078684F
:1012700009F09EFA36A3D3E9002309F081FD034665
:10128000002B30D03A4978680AF0A0F80346002BCA
:1012900029D0354A7B681360334B1B68184609F028
:1012A00087FA2DA3D3E9002309F022F902460B4661
:1012B000104619464FF000022E4B09F0D1FA0246B3
:1012C0000B461046194626A3D3E9002309F0F2FB8A
:1012D00002460B461046194609F05CFD03469AB2D9
:1012E000224B1A8030E0224978680AF08DF80346D4
:1012F000002B00D128E01C4B1D4A1A601A4B1B68BA
:10130000184609F055FA14A3D3E9002309F0F0F8C0
:1013100002460B46104619464FF00002154B09F0E5
:101320009FFA02460B46104619460DA3D3E9002347
:1013300009F0C0FB02460B461046194609F02AFD8B
:1013400003469AB2094B1A8000BF0837BD4680BDDC
:10135000666666666666E63F333333333333E33FB0
:10136000CDCCCCCCCCCC26400C0D0020000F0020E6
:101370000000404100C0874080B588B004AFF860ED
:10138000B9607A603B60FB687A689A63FB68BA6808
:101390005A63FB683A68DA63FB68002283F87020BE
:1013A00013A3D3E90023CDE900234FF000024FF04F
:1013B0000003F86813F088FEFB680A229A65396B0F
:1013C000F86813F047FFD7E90A23CDE90223D7E9EC
:1013D0000823CDE90023D7E90623F86806F0F4FED8
:1013E000FB6818461037BD4680BD00BFAFF30080D4
:1013F0000000000000E06F402DE9F04F1C46984BC4
:101400001B68A1B0002581461846884608921C95A5
:101410000493FFF715F8002183460020CDE906016B
:10142000CDF86C804246174612F8013B2D2B2FD881
:10143000DFE813F0A1002E002E002E002E002E005B
:101440002E002E002E00AF00AF00AF00AF00AF00A7
:101450002E002E002E002E002E002E002E002E001C
:101460002E002E002E002E002E002E002E002E000C
:101470002E002E00AF002E002E002E002E002E007B
:101480002E002E002E002E002E0006042E00FC033F
:1014900000220A92302B7ED0002209922F2B1C466C
:1014A00040F233854FF0000A38465646554612E062
:1014B0000130082D1B90C8BF0AEB8A0A0478C6BF0A
:1014C00003EB4A03A3F1300AA2F130062F2C05F1F9
:1014D0000105234670DD06EB8602392C03EB420240
:1014E000E6DD04995A460BF001F80346002835D191
:1014F0001B9A11465A441B9211F80B40002D40F0E4
:10150000AC85302C40F06485C2F1010153180132E2
:101510001B921478302CF9D0A4F13102082A00F281
:101520003883A4F1300E1B9C03F1010B002301252D
:101530002746049306EB86060EEB46060023621C44
:101540001B926478A4F13001092900F2ED82013385
:101550008E46002940F0B8841B9CF0E70023652CE0
:1015600004959B469E4601D0452C32D1002D7CD15E
:10157000099A1A4378D1089B13B1089BC3F80080DD
:101580004FF0000BCDF810B00499584621B0BDE8DB
:10159000F08F1B9247E77B7803F0DF03582B00F0B6
:1015A000748401371B973B78302BFAD0002B00F066
:1015B000CC800122099271E704995A460AF096FFFD
:1015C0000346002800F0D68004954FF0000B5B46E0
:1015D000DE4600220B92002D00F09380049A134601
:1015E000002A08BF2B463046049309F0BFF80B468B
:1015F0000246CDE906230B9B102DA3EB0B032C46D3
:10160000A8BF1024092D0E9313DD164B03EBC40362
:1016100053E9122309F024F9CDE90601504609F0F7
:10162000A5F802460B46DDE9060108F063FFCDE9A7
:1016300006010F2D00F3A7800E9B002B00F01884ED
:101640000E9B40F39283162B40F3F9840E9AC5F15A
:101650002503934280F20C850E9B2C1B1C4498E0C2
:10166000646F0100785C01000025DDF86C8008F1F2
:1016700001021B9298F801402B2C00F087822D2C40
:1016800000F0218200220E92A4F13002092A00F219
:101690001582302C05D11B9A01321B921478302C04
:1016A000FAD0A4F13102082A93D81B990B914A1C55
:1016B0001B92A4F130004C782F2C09DC00F034BCD4
:1016C00001321B929CF801402F2CA1F1300006DD65
:1016D00000EB8001392C944604EB4101F0DD0B99BD
:1016E000521A082A40F3208444F61F620B920E9A85
:1016F000002A3FF470AF0B9A52420B92002D7FF4F8
:101700006DAF099A134320D1BEF1000F7FF433AFC0
:10171000692C00F03B8400F34183492C00F03684AF
:101720004E2C7FF428AFAC491BA80FF055FA0028C7
:101730003FF421AF1B9B1B78282B00F06D85A74839
:1017400010F0A0F98346049103E04FF0000BCDF8B0
:1017500010B0089A0AB11B9B13600A9B002B3FF440
:1017600013AF049901F1004304930499584621B042
:10177000BDE8F08F1B9A049502EB0B011B9112F848
:101780000B409B46DEE60E9B2C1B1C44002C40F3BA
:101790000A8314F00F000AD0914901EBC001DDE982
:1017A0000623D1E9000109F05BF8CDE9060134F028
:1017B0000F0340F08B8200230993049A00962B4676
:1017C000394648460FF08CFC1390002800F05583F2
:1017D0000B9BABEB03000E9B002BB4BF0246002219
:1017E0000F9223EAE3730022934612939046139CD0
:1017F000484661680FF0F4FB0746002800F041817D
:1018000022690232920004F10C010C300AF0B6FA9F
:10181000DDE9060104910B461EA901911DA90B905B
:1018200002460091484610F007F81C90002800F08E
:101830001881012148460FF0FBFC8046002800F08B
:1018400020811D9B002BC0F20F810F9A129D9E18C4
:10185000099A1E9C9B1A2344624A013B9342C4F19D
:10186000360480F2AE80D21A1F2AA4EB020400F3E1
:101870001D814FF0010A00230AFA02FA0C93099B1A
:1018800025443444A6421D443346A8BF2346AB42F8
:10189000A8BF2B46002B02DDE41AED1AF61A0F9BA7
:1018A000002B00F3BE80002C00F3D2800E9B002B97
:1018B00000F3DE80002D00F3EF80002E08DD4146AE
:1018C000324648460FF0F0FD8046002800F0D980EF
:1018D0001C993A4648460FF07FFE8346002800F0E8
:1018E000D0800026C368C660414610930FF054FEB6
:1018F000B042C0F2638400F0D283414658460FF0F4
:10190000FDFF00224FF0804304460D4609F024FA03
:1019100000286FD0109B002B00F0E180079B1193F3
:10192000314B314C0022CDE90C2335462F4E119A14
:101930002F4B02EA060A9A4500F0FC80099B93B1FE
:10194000BAF1D46F0FD822A3D3E900232846214649
:1019500009F002FA002840F087810D9B03F1D6635D
:10196000A3EB0A030D93049E0B98DDE90C2331468B
:10197000CDE904230FF0D6FE02460B46DDE9040153
:1019800008F06EFF33460B9A08F0B4FDCDE906016E
:101990000E46099B23B9154B33409A4500F002814E
:1019A0001C9948460FF042FB394648460FF03EFB73
:1019B000414648460FF03AFB594648460FF036FB81
:1019C00015E700230C934FF0010A58E7AFF30080AE
:1019D0000000C0FFFFFFDF41806B0100305F0100AE
:1019E000785C010002FCFFFF0000F03F0000F07F88
:1019F0000000E07FAE4B20462946002208F030FF71
:101A0000109B024605460C46002B64D101F10043B1
:101A100014901593079B1193DDE91423CDE90C2352
:101A200084E741461A4648460FF0DEFC804640B344
:101A300001461C9A48460FF029FC10B310901C99DF
:101A400048460FF0F3FA109B1C93002C7FF72EAF43
:101A50001C99224648460FF027FD1C9000287FF471
:101A600025AFBA465E460FE0129A0F9ED51AEFE6F2
:101A70003946129A48460FF0B7FC074600287FF413
:101A800019AFBA465E461C982223C9F80030894B2C
:101A900004934FF0000BB4E039462A4648460FF055
:101AA00003FD074600287FF408AFEAE7824A4FF0BB
:101AB000010AD31A0AFA03F30C93E0E60022CDF8E8
:101AC0006C800B9287E501220E9208F102021B92B4
:101AD00098F80240D8E50B46CDE914239AE7DDE9F2
:101AE0000612002940F0AF80C2F313031192002BBD
:101AF00040F0AF80714B00222046294609F022F9C0
:101B0000002840F0AE826A4B20462946002208F0A9
:101B1000A7FE01F1004305460C4618901993DDE934
:101B20001823CDE90C2301E7652C4FF0010E3FF49B
:101B30009CAD19E5A2F154730793DDE90623DDE9B5
:101B40000C01CDE9060110461946CDE90C230FF032
:101B5000E9FD02460B46DDE9060108F081FEDDE9FC
:101B60000C2308F0C7FC564A0E409642CDE9060108
:101B700076D9049A534B9A4202D10B9B013380D001
:101B8000504A4FF0FF33CDE9063209E700220E92AA
:101B90009BE7652C00F0FB80452C00F0F8804FF0AF
:101BA000010EAEE52846214611F048FD08F02AFE58
:101BB0000B4602462146284608F09AFC109C069DDA
:101BC000C6F3130644EA050C5CEA060304460D4618
:101BD00000F0C28032A3D3E9002309F0B3F848B97A
:101BE00031A3D3E900232046294609F0C9F800288B
:101BF0003FF4D6AEDDE906341C9804945E46BA463E
:101C00009B46014648460FF011FA514648460FF0F0
:101C10000DFA414648460FF009FA139948460FF06D
:101C200005FA314648460FF001FA92E501230A937E
:101C30007A1C1B927B78002B3FF49DAC174629E45D
:101C400000230A93F4E7DDE90612012900F074810C
:101C500011921D4B194C0022CDE90C23002565E69D
:101C600001F15476079694E62146284609F092F849
:101C7000012838BF012008F079FD109B0246054677
:101C80000C46002B40F0698101F100431690179338
:101C9000DDE91623CDE90C235FE600BFAFF300803A
:101CA0009535A094FFFFDF3F35E5AF350000E03FFD
:101CB0000000E03F0000F07FE2FBFFFF0000F03F8C
:101CC000FFFF9F7CFFFFEF7F0000F0BFB3F59A7F1F
:101CD00000F3D380102B4FEA2314A54B40F3C682A8
:101CE000DDE906019846099300239A4614F0010F96
:101CF0000AF1010A4FEA640404D0D8E9002308F08D
:101D0000AFFD0123012C08F10808EFD10BB1CDE99B
:101D10000601099B03EBCA01079BA3F154730793C8
:101D2000DDE90623D1E9000108F09AFD914BCDE9E8
:101D300006010B400A4690498B4200F29E80A1F5B5
:101D400080118B4240F21C828C494FF0FF33CDE969
:101D500006310023099330E583A3D3E9002308F07B
:101D6000F1FF00283FF41CAE44E71633FFF60BAD3D
:101D70000B9BABEB0302824B03EBC203DDE90601D5
:101D8000D3E9002308F096FE83460491E1E40022A3
:101D9000049293464FF0010EFFF7EABB6E2C3FF41E
:101DA000C2ACFFF7E8BB3FF406AD644214F00F028B
:101DB0000AD0734B03EBC203DDE90601D3E900232C
:101DC00008F078FECDE9060124113FF4F4AC1F2C95
:101DD00035DC14F01003DDE9060118BF6A23DFF8D3
:101DE000A48109930023E20704D5D8E9002308F071
:101DF00037FD0123641008F10808F4D10BB1CDE9D7
:101E00000601099B93B1DDE90601C1F30A52C2F153
:101E10006B03002B0ADD1F2B40F350820020342B74
:101E2000069040F356824FF05C730793DDE906019C
:101E30000022002308F07CFF00283FF4BEAC2223E0
:101E40004FF0000BC9F80030CDF810B081E41E9BB4
:101E500006931D9B03F233421F9B23F4801343EA36
:101E600002530793200742BF079B43F000430793A9
:101E7000DDE906349B4604946BE43E4A0492222337
:101E8000C9F800304FF0000B63E40A9B01931CABD0
:101E9000029400933C4A1DAB1BA948460EF0BEFBC2
:101EA00010F0070504463FF450AC062D40F0938037
:101EB000089B0137002B3FF463AB4FF0000B1F6012
:101EC000CDF810B0FFF760BB6A1C012B1B9C9B4434
:101ED000104615D02B4403F1FF3C03E04600944527
:101EE0000DD001322B46082B154606EB8600F5D99E
:101EF000102ADCBF0AEB8A0A4FEA4A0AEFE7981C6D
:101F0000082D5BDC0546FFF715BB04995A46384699
:101F10000AF0ECFA002800F0888000231D460493A4
:101F20009A461E46FFF751BB44F61F629042A8BF77
:101F300010460B90FFF7DBBBDDE906341194002C53
:101F40007FF487AEBA465E4622234FF0000B1C9802
:101F5000C9F80030CDF810B053E60B46CDE9162392
:101F600096E600BFAFF300809535A094FFFFCF3F0A
:101F7000505C01000000F07F0000A07CFFFFEF7FBD
:101F8000785C0100285C0100846B0100AD491BA84E
:101F90000EF022FE00283FF4EEAA1B9BAA49013B4B
:101FA0001BA81B930EF018FE10B91B9B01331B934B
:101FB000A64B04934FF0000BFFF7CBBB1028DCBF00
:101FC0000AEB8A0A01EB4A0A05460023FFF7B7BA73
:101FD0000023FFF7A1BA1C9A3AB135211EA80FF0D1
:101FE000BBFC1C9948460FF021F8013D042D3FF63B
:101FF00039AF01A353F825F04F1E00002120000047
:102000001B2000000D2000004F1E00004FF0FF338A
:102010006FF00045CDE9063524E78C4B079321E7A7
:102020001E9B06931F9B07931CE71B9A13465A445B
:102030001B9213F80B4006468246FFF762BA0E98D1
:10204000834901EBC001DDE90623D1E9000108F075
:1020500007FC83460491FFF77CBB04958346FFF79A
:1020600071BA7C4B7C4C109D0022CDE9182356E5BB
:10207000774CC5F10F0504EBC501DDE90623D1E975
:10208000000108F0EDFB0E9B5D1B04EBC504D4E9D9
:10209000002308F0E5FB83460491FFF75ABB109B31
:1020A0005E46D446BA46DDE90BB7002B6FD0DDE9BA
:1020B00006456A4BC5F3130199422A463CD0002FCE
:1020C00000F0A380DDE906231F421C4621D0109BAF
:1020D00004995846002B00F0CD800FF023FB099D9A
:1020E00002460B467DB1C4F30A54C4F16B04002CC4
:1020F00009DD240504F17F53002203F5401308F0A5
:10210000AFFB02460B460499584608F0F3F98346A4
:102110000491099B73B10499514B5846002208F071
:102120009FFB03460B4308BF22238346049108BF4D
:10213000C9F800301C9864E5099B0699002B00F053
:10214000C580424B2B40B3F1D46F00F2BF801B0D12
:10215000C3F16B034FF0FF3000FA03F39942AED1A5
:10216000404B9A4200F0D880384B134003F580135F
:10217000079300230693DDE906349B460494C8E7E1
:1021800002F15473079300230993FFF716BBDDE9AF
:102190000612C2F313030B43144690D1099B002B84
:1021A00040F0AF80294B2340A3F580136FEA13530F
:1021B0006FEA035307934FF0FF33DBE7DDE90612C5
:1021C000109B0B4358465E46BA46DDF82CB0A0D1B2
:1021D000C2F313031446002B9BD122F000431B0DC6
:1021E0001B05B3F1D66F94D9436913B90369012B69
:1021F0008FDD3146012248460FF056F9414606462A
:102200000FF0CAF9002884DDC8E7DDE906341CEACE
:10221000030F3FF47EAF5AE713491BA81EAA0EF026
:10222000F5FC05287FF48BAA1F9B43F0FF4343F482
:10223000E00307931E9B0693DDE906349B46049456
:10224000FFF787BA746B0100786B01000000F07F24
:10225000785C01000000E0BF0000E03FFFFF0F00DE
:1022600000005039FFFFEF7F986B010009934FF09A
:10227000000A4EE50FF056FA099D02460B4695B34B
:10228000C4F30A54C4F16B04002C09DD240504F1E5
:102290007F53109A03F5401308F0E2FA02460B460A
:1022A0000499584608F024F900220023834604913B
:1022B00008F03EFD00283FF42EAF45E64FF0FF3218
:1022C00002FA03F3069A1A400692AFE54FF0FF3385
:1022D00044E74FF0FF33C2F14B0203FA02F202EA85
:1022E00001030793A2E50499584608F001F900227A
:1022F00000238346049108F01BFD00283FF41AAF29
:1023000022E6084B2340B3F1D66F3FF74DAFB3F150
:102310005C7F3FF700AF17E601317FF425AFFFF791
:10232000B2BB00BF0000F07F2DE9F04F016C99B007
:1023300090469946CDE90489259D044641B1426CF9
:102340004A60012393408B600EF070FE00232364EB
:10235000B9F1000AB4BF012300232B60764BBCBF48
:102360002AF0004ACDF814A033EA0A0300F0AA804C
:10237000DDE904231046194600220023CDE90A01B5
:1023800008F0D6FC074670B1249A01231360269BFF
:10239000002B00F0E48269481860431E0393039801
:1023A00019B0BDE8F08F16AB019317AB0093204630
:1023B000DDE90A230FF040FA5FEA1A56054640F0BD
:1023C0009780DDE916763E4406F23240202840F33D
:1023D000B583C0F140000AFA00FA06F2124028FA6A
:1023E00000F04AEA000008F0C1F90123013EA1F122
:1023F000F8710F93524B002208F07AF848A3D3E902
:10240000002308F02DFA48A3D3E9002308F072F85E
:1024100080463046894608F0B9F945A3D3E9002340
:1024200008F01EFA02460B464046494608F062F89C
:102430008046894611F0DAF80022834600234046A0
:10244000494608F07FFC002840F07C82BBF1160F63
:1024500000F26B823B4B03EBCB03D3E90023DDE9B6
:102460000A0108F06FFC002872D00023BE1B0E93F7
:10247000731E0BF1FF3B069300F15E82002309936C
:10248000BBF1000F6BDA099BCDF81CB0A3EB0B037B
:102490000993CBF100030D93229B092B4FF0000B06
:1024A00066D8052B40F34883043B22930026229BE9
:1024B000023B032B00F26886DFE813F05C0459044A
:1024C00050043304249A42F20F73CAF3130A1360C0
:1024D0005AEA08031AD1269B002B00F064861A4B97
:1024E00003930833269A0398136019B0BDE8F08F60
:1024F000DDE90A12C2F31303084643F07F510F9738
:10250000A6F2FF36169F41F4401173E7269B002B7D
:1025100040F0EA830D4B039341E700BFAFF3008027
:1025200061436F63A787D23FB3C8608B288AC63FD9
:10253000FB799F501344D33F0000F07FED6B010007
:102540000000F83F785C0100386D0100346D010037
:10255000BE1B731E069300F185840E900990069BA6
:102560005B44CDE9063B00230D93229B092B98D9B0
:102570000023CDE9223301264FF0FF330C96089358
:10258000089B12930021616420460EF029FD039000
:10259000002800F00186039B2364089B0E2B00F2A9
:1025A0001381002E00F010810799002940F35C840C
:1025B000AE4B01F00F0203EBC2034FEA2118C9052D
:1025C000D3E9006740F11484A94BDDE90A01D3E99E
:1025D000082308F06FFACDE9100108F00F084FF05A
:1025E000030AB8F1000F13D0DFF8849218F0010F3E
:1025F00009D030463946D9E9002308F031F90AF10B
:10260000010A06460F465FEA680809F10809EDD19C
:10261000DDE9100132463B4608F04CFA8046894617
:102620000E9B43B1934B00224046494608F08AFB7B
:10263000002840F03085504608F0A8F842464B4646
:1026400008F00EF98C4B002207F054FFA1F15073F3
:10265000CDE910011193089B002B00F09780079B98
:102660001493089B13930C9B002B00F0A584139AE2
:102670007E4B8249039E03EBC20353E902230020F1
:1026800008F018FADDE9102307F032FFCDE9100158
:102690004946404610F0AAFF074608F077F8024680
:1026A0000B464046494607F023FF3037DDE910234B
:1026B00006F8017B8046894608F044FB002840F07C
:1026C0002985CDF854B00027DDE910AB1095139D96
:1026D00013942AE00137AF4280F22C85684B5046B4
:1026E0005946002208F0BCF8654B002282468B4612
:1026F0004046494608F0B4F88946804610F076FF17
:10270000044608F043F802460B464046494607F0A7
:10271000EFFE303406F8014B52465B468046894650
:1027200008F010FB002840F0F38442464B46514924
:10273000002007F0DDFE52465B4608F003FB002850
:10274000C8D0DDE91343109D039A079302E0964237
:1027500000F0C884B24616F8013D392BF7D001339A
:10276000DBB23370079B01330793C8E1504608F092
:102770000DF842464B4608F073F83F4B002207F035
:10278000B9FEA1F15073CDE9100111933D4B4046C4
:102790004946002207F0ACFEDDE910894B4642466F
:1027A00006460F4608F0ECFA8146002840F0AA845D
:1027B000DDE91001024601F100433046394608F0D8
:1027C000C1FA002840F04583179B002BC0F28C8093
:1027D000079A0E2A00F38880244B03EBC203D3E947
:1027E00000AB239B002B1BDA089B002B18DC40F06E
:1027F0002E83244B00225046594608F031F80246F9
:102800000B46DDE90A0108F0A7FADDF820904E46F4
:10281000002800F0C782239BDDF80C80DF43C9E26B
:10282000DDE90A7852465B463846414608F042F9EF
:1028300010F0DCFE8146099007F0A8FF52465B4687
:1028400008F00EF8039E0B4602464146384607F054
:102850004FFE09F1300306F8013B089B012B00F005
:102860005C830694012704951C462AE0785C0100ED
:10287000505C01000000F03F00001C400000E03F01
:10288000000024400000144052465B464046494642
:1028900008F010F910F0AAFE054607F077FF52463F
:1028A0005B4607F0DDFF01370B46024649464046CE
:1028B00007F01EFE05F13003A74206F8013B00F0C9
:1028C0002983AC4B002207F0CBFF00220023804677
:1028D000894608F02DFA0028D6D0049D069C079B57
:1028E00001330793B2460AE10C9A002A3DD0229A9E
:1028F000012A40F39C82089B03F1FF380D9B43455E
:10290000C0F26D82A3EB0808089B002BC0F23C8349
:10291000069A1A440692099A17461A440992012106
:1029200020460EF085FC064623E00123BE1B0E93D5
:10293000731E06937FF5A2ADC6F101030993002330
:1029400006939DE5584607F021FF42464B4608F0A6
:10295000EFF900287FF47AAD0BF1FF3B76E5864B6B
:102960000393039819B0BDE8F08FDDF83480099F18
:102970000C9E002F0CDD069900290B4608DD099AF4
:10298000B942A8BF3B46D21AFF1ACB1A0992069346
:102990000D9BDBB10C9B002B00F05D82B8F1000FAA
:1029A0000FDD3146424620460EF01EFD2A46014606
:1029B000064620460EF06AFC2946054620460EF0E3
:1029C00035FB0D9BB3EB080240F0D8820121204675
:1029D0000EF02EFCBBF1000F814600F3B480229B69
:1029E000012B40F386814FF0000A0120BBF1000F5C
:1029F00040F0B580069A104410F01F0000F093805C
:102A0000C0F12003042B40F3D283099BC0F11C00CA
:102A100003440244099307440692099B002B05DDF9
:102A200029461A4620460EF03FFD0546069B002B20
:102A300005DD49461A4620460EF036FD81460E9BBE
:102A4000002B40F03681089B002B40F31D810C9B2E
:102A5000002B40F0A080079B01330793DDF80C802A
:102A6000DDF820A0012707E0294600230A2220469E
:102A70000EF0E6FA01370546494628460DF014FAED
:102A8000574500F1300308F8013BEDDB089A002AB6
:102A9000C8BF9346039AD8BF4FF0010B9344002759
:102AA00029460122204604930EF0FEFC49460546C5
:102AB0000EF072FD002840F3A8811BF8013C039A38
:102AC0000BF1FF3B04E05A4500F0AA811BF8013DE1
:102AD000392B0BF1010AF6D001338BF8003049464F
:102AE00020460EF0A3FA56B12FB1B74203D03946B3
:102AF00020460EF09BFA314620460EF097FA294602
:102B000020460EF093FA00238AF80030249B079A9F
:102B10001A60269B002B3FF442AC0398C3F800A038
:102B200019B0BDE8F08F1C20099B03440993069B54
:102B300003440744069370E70126B8E4C0F120007F
:102B400008FA00F04FE401465A4620460EF04CFCCD
:102B5000229B012B814640F3B3814FF0000AD9F844
:102B6000103009EB830318690EF014FBC0F120004C
:102B700040E700BF00002440EC6B01003146002319
:102B80000A2220460EF05CFA129B002B064640F308
:102B9000E782CDE90783002F00F31A81BAF1000F15
:102BA00040F0D581B046049B039F089903F00102D1
:102BB0007B1E1944229B0C92134309910A934946A8
:102BC00028460DF071F93146834628460EF0E4FCA4
:102BD00042464946824620460EF0FEFCC268014647
:102BE0000BF13003002A42D10690284608930EF0DC
:102BF000D3FC0699049020460EF018FA049A089B1C
:102C00001AB90A99002900F09B82BAF1000FC0F2AC
:102C1000638122994AEA010A0C9951EA0A0100F0FB
:102C20005B81002A00F3B481099A3B7007F1010A25
:102C30009742D34600F0B281294600230A2220465B
:102C40000EF0FEF94645054631464FF000034FF0C1
:102C50000A02204612D00EF0F3F941460646002340
:102C60000A2220460EF0ECF957468046A7E7204698
:102C700004930EF0DBF9049B0122C6E70EF0E0F9A5
:102C80005746064680469AE7229B022B79DC0C9B2E
:102C9000002B80D1079B49460133284607930DF04E
:102CA00003F9DDF80CB000F130030BF8013B00270D
:102CB000F6E6494628460EF06FFC0028BFF6C3AE84
:102CC000294600230A2220460EF0BAF9079B03F199
:102CD000FF380C9B0546002B7FF450AF129B002B56
:102CE00040F335820893B9E6AF4B03930333FFF704
:102CF000F9BBDDE9041200297FF475AEC2F31303BA
:102D0000002B7FF470AEA94B1340002B00F0FE8126
:102D1000099B01330993069B013306934FF0010A87
:102D200063E601230C93239B079A13441293013308
:102D3000012B1F460893B8BF01270021172F61649C
:102D40007FF722AC012204235B0003F11400B84298
:102D5000114602F10102F7D9616415E401230C93D5
:102D6000239B002B4CDD129308931F46E5E70023BD
:102D70000C93D8E700230C93F2E7129BCDF81C804C
:102D80000893089B002B7FF446AD49460522204658
:102D90000EF056F90146814628460EF0FDFB00284C
:102DA0007FF739AD0398079F3123804600F8013B38
:102DB00001370390494620460EF038F97B1CDDF8B8
:102DC0000CA00793CDF80C80002E7FF494AE96E60D
:102DD00031463A4620460EF067FB0646DEE60D9B7E
:102DE000CDF83480A8EB03039B444FF000088BE53B
:102DF000DDE90A234FF0020ACDE91023FFF7F1BB0A
:102E0000012323930893FFF7BBBB03D1049BDB078C
:102E10003FF553AEDA461BF8013D302BFAD05EE6A3
:102E2000079B039A013307933123137057E60F9AD8
:102E3000002A00F0268103F23343069ADDF834803D
:102E40001A440692099A17461A44099267E54FF008
:102E500000094E46DFE429460D9A20460EF0C4FADA
:102E60000546B3E50E9067E500F00F81079A504BD9
:102E7000564206F00F0203EBC203D3E90023DDE95B
:102E80000A0107F0EDFC36118046894600F0718199
:102E9000484F00234FF0020AF20706D5D7E9002376
:102EA00007F0DEFC0AF1010A0123761007F108079A
:102EB000F2D1002B3FF4B4AB80468946FFF7B0BB9C
:102EC000049B002B7FF449AEDDE90412C2F3130327
:102ED000002B3FF418AF40E6002A12DD29460122FC
:102EE000204604930EF0E0FA494605460EF054FBE6
:102EF0000028049B40F31881392B00F0F9800BF176
:102F00003103BA460AF8013B079B01333746079362
:102F10004646E4E50995069C049D02460B4607F0EB
:102F2000E9FA52465B468046894607F029FF60B9B8
:102F300052465B464046494607F0FAFE00283FF4F9
:102F4000CEAC099BD9077FF5CAAC039A02E471683D
:102F500020460EF045F80746002800F00E81336940
:102F600002339A0006F10C010C3008F007FF3946D5
:102F7000012220460EF098FA804614E629462046A3
:102F80000EF032FA054621E5DDE908239F1AC6E472
:102F9000392B00F0AD80BA460133B3E7079A01320E
:102FA0003746079246467BE5346D01000000F07F0E
:102FB000785C0100505C0100DDF84CA0844901EB15
:102FC000CA01DDE9102351E9020107F049FCCDE90E
:102FD00010014946404610F009FB064607F0D6FBB3
:102FE0000B4602464946404607F082FA039F534685
:102FF0003036012B07F8016B8046894600F0AE8021
:10300000139E039B1E44734B00224046494607F023
:1030100027FC8946804610F0E9FA824607F0B6FBA5
:103020000AF1300A02460B464046494607F060FA6C
:1030300007F801ABB74280468946E4D1664B0022CF
:10304000DDE9100107F056FA42464B4607F07AFEDA
:10305000002864D1DDE910235F49002007F048FA19
:1030600042464B4607F08CFE00283FF4ADABB2461B
:10307000013E1AF8013C302BF9D0149B0133079321
:103080003DE5169BC3F13603D7E6DDE90A894FF02B
:10309000020AFFF7C5BA089B002B3FF467AB129BEF
:1030A000002B7FF791AB079A013ACDE913324046E6
:1030B000484B0022494607F0D3FB804689460AF177
:1030C000010007F063FB42464B4607F0C9FB434B48
:1030D000002207F00FFAA1F15073CDE9100111930E
:1030E000FFF7C1BA079B013307933123FFF739BBC1
:1030F000079BBB4601330793392337460BF8013B47
:103100004646DCE44FF000094E464BE69A466CE436
:10311000109D139C149B01330793B246EFE4149B5C
:10312000039A0793FFF716BB7FF4EBAEDA077FF540
:10313000E8AEE1E6DDF854B0109D139CFFF744BB08
:10314000392BD5D0BAF1000F3FF7D9AED9E6229B83
:10315000022B3FF712AECDF81C809BE53E466DE793
:10316000229B022B3FF709AE129BCDF81C800893DF
:1031700011E54FF0020AFFF753BA194B19483A46C6
:1031800040F2EA2105F092FE0026666431462046B0
:103190000DF026FF039078B9114B124800224FF42E
:1031A000D57105F083FE104B0393FFF7F8B83FF499
:1031B00034ACC0F13C00B7E4039B236401224FF020
:1031C000FF33239612930C920893FFF7FDBA00BFCA
:1031D000785C0100000024400000E03F00001C403B
:1031E000446D0100586D0100386D010080B483B05A
:1031F00000AF78607B6801221A607B6805225A6004
:10320000074B1B680133064A1360054B1B68012BF3
:1032100000D9FEE77B6818460C37BD4680BC704776
:10322000100B002080B582B000AF7860602003F002
:1032300027FF03466E4A53606D4B5B68184611F0DA
:10324000FDF90346002B09D0694B00221A70684B28
:1032500001225A70664B01229A7020E05B2003F035
:1032600051FF0346002B14BF01230023DAB2604B49
:103270001A705C2003F046FF0346002B14BF0123A5
:103280000023DAB25A4B5A705D2003F03BFF03462D
:10329000002B14BF01230023DAB2554B9A70554816
:1032A00004F050FB534811F069FE534A5349544807
:1032B00004F05EFD534A5449514804F059FD534A05
:1032C00053494F4804F054FD524A53494C4804F0C6
:1032D0004FFD524A52494A4804F04AFD514A524968
:1032E000474804F045FD514A5149454804F040FD26
:1032F000504A5149424804F03BFD504A5049404829
:1033000004F036FD4F4A50493D4804F031FD4F4A24
:103310004F493B4804F02CFD4E4A4F49384804F0D1
:1033200027FD4E4A4E49364804F022FD4D4A4E498B
:10333000334804F01DFD4D4A4D49314804F018FD55
:103340004C4A4D492E4804F013FD4C4A4C492C4838
:1033500004F00EFD4B4A4C49294804F009FD4B4A44
:103360004B49274804F004FD4A4A4B49244804F0DD
:10337000FFFC4A4A4A49224804F0FAFC494A4A49B1
:103380001F4804F0F5FC494A49491D4804F0F0FC87
:10339000484A49491A4804F0EBFC484A4849184849
:1033A00004F0E6FC474A4849154804F0E1FC474A66
:1033B0004749134804F0DCFC464A4749104804F0EA
:1033C000D7FC464A46490E4804F0D2FC454A4649D5
:1033D0000B4804F0CDFC454A4549094804F0C8FCB7
:1033E0004449074811F0D4FD00BF0837BD4680BDF1
:1033F000D80A0020700C0020DD3B0000405D010079
:10340000740C00209D3B0000485D0100453B00001E
:103410004C5D0100AD3C0000505D0100113E00001C
:10342000585D0100C53E0000605D01005D43000085
:10343000685D0100954900006C5D0100114B0000C2
:10344000705D0100BD4C0000745D0100194E00006C
:103450007C5D0100554E0000845D0100F14B0000D1
:103460008C5D010015360000905D01009136000072
:10347000985D0100AD370000A05D010089390000B2
:10348000A85D01002D3C0000B05D0100614100001D
:10349000B85D0100513F0000C05D01000140000027
:1034A000C45D0100B1400000C85D01004142000060
:1034B000CC5D0100C1420000D45D01003544000034
:1034C000DC5D0100F1440000E05D0100ED4500001D
:1034D000E45D0100E9460000E85D0100E548000008
:1034E000EC5D0100E5470000F45D01007D4C00004B
:1034F000FC5D01008D4E000080B582B000AF7860A9
:103500003B4B1B78BFF35B8FDBB203F00103002B57
:103510000CBF01230023DBB2002B18D034480EF07F
:1035200061FF0346002B14BF01230023DBB2002BF5
:103530000DD07B681B6819462E4803F0B3FA2E4A5B
:103540002E492C4811F07BFB29480EF067FF2C4BCD
:103550001B78BFF35B8FDBB203F00103002B0CBFC2
:1035600001230023DBB2002B18D025480EF03AFFD0
:103570000346002B14BF01230023DBB2002B0DD028
:103580007B685B6819461F4803F08CFA1A4A1B498E
:103590001C4811F054FB1A480EF040FF154803F088
:1035A000F7FB0346002B0DD07B681B6819461148BA
:1035B00003F020FC144B1B680133134A13601348BB
:1035C00004F062FC0F4803F0E3FB0346002B0BD032
:1035D0007B685B6819460B4803F00CFC0C4B1B78AE
:1035E000002B01D001F098FB00BF0837BD4680BD1D
:1035F0007C0B0020780B0020C00900200D6B000020
:10360000840B0020800B0020880B0020740C00200D
:10361000060F002080B582B000AF164B9B78012BBF
:103620001FD1154811F0D1FC7860134811F0DFFC70
:1036300038601249386807F0D3FE0346002B0BD0E0
:103640003968786803F028FC0A4B01221A700C498B
:103650000C4804F0E1FA08E00B490A4804F0DCFAEF
:1036600003E00A49074804F0D7FA00BF0837BD460F
:1036700080BD00BFD80A0020740C002000803B45AC
:10368000045E0100700C0020185E0100405E010025
:1036900080B588B000AF394B9B78012B64D1374B94
:1036A0005B78012B60D1364811F08FFCF861354B07
:1036B000BB61354B7B61354B3B61B969F869FCF700
:1036C00033FF0346002B0CBF01230023DBB2002B8A
:1036D00006D02F492F4804F09FFA03F02BFE48E054
:1036E0003969F869FCF720FF0346002B0CBF012362
:1036F0000023DBB2002B12D0214811F088FC0346D6
:10370000FB711F4811F073FC38602349214804F015
:1037100083FAFB793968184603F03EFD29E07969A0
:10372000F869FCF701FF0346002B0CBF01230023BF
:10373000DBB2002B12D0124811F069FC0346FB7378
:103740000F4811F042FCB8601449124804F064FAC2
:10375000FB7BB968184603F07DFD0AE0104A64213E
:10376000104808F021FE04E00F490A4804F054FA1A
:1037700000BF00BF2037BD4680BD00BFD80A002073
:10378000740C00206C5E0100705E0100446001005A
:10379000745E0100700C0020885E01009C5E0100D8
:1037A000B05E0100140B0020405E01002DE9F043E3
:1037B0008DB002AF654B9B78012B40F0BC80634B12
:1037C0005B78012B40F0B780614811F0FEFB786216
:1037D000604B3B62604BFB61604BBB615C4811F02E
:1037E00016FC0346FB75396A786AFCF79DFE0346B2
:1037F000002B0CBF01230023DBB2002B17D058494C
:10380000584804F0E1F9FB7D184603F07BFC0346C1
:10381000FB71FA7DFB7900931346534A64215348A8
:1038200008F0C2FD51494F4804F0F6F988E0B96943
:10383000786AFCF779FE0346002B0CBF01230023B6
:10384000DBB2002B1BD04A49464804F0BDF9FB7D92
:10385000184603F015FCB860FC7DB86806F0A8FFB8
:1038600002460B46CDE900232346424A64213F48E5
:1038700008F09AFD3D493B4804F0CEF960E0F96953
:10388000786AFCF751FE0346002B0CBF012300238E
:10389000DBB2002B49D06B461E462D4811F0B7FB1A
:1038A0000346BB7534492F4804F08EF9BB7D591E81
:1038B00039610B4601330022984691464FF00002D1
:1038C0004FF000034FEAC90343EA58734FEAC802B6
:1038D0000B46013300221C4615464FF000024FF004
:1038E0000003EB0043EA5473E2000B460133073355
:1038F000DB08DB00ADEB030D02AB0033FB60B97DF1
:10390000FB7DFA68184611F098FAFB7D1B4A64218A
:10391000164808F049FD1549124804F055F9F968B0
:10392000104804F079F9B5460AE0154A64210F48B9
:1039300008F03AFD04E013490A4804F06DF900BFAD
:1039400000BF2C37BD46BDE8F08300BFD80A002079
:10395000740C00206C5E0100705E01004460010088
:10396000C45E0100700C0020D85E0100140B002022
:10397000E05E0100F45E0100FC5E0100105F0100EA
:10398000B05E0100405E010090B58DB002AF5D4BAE
:103990009B78012B40F0AD805A4B5B78012B40F0B7
:1039A000A880594811F011FB7862584B3B62584B84
:1039B000FB61584BBB61584B7B61534811F027FBAF
:1039C0000346FB74396A786AFCF7AEFD0346002BA8
:1039D0000CBF01230023DBB2002B02D003F0FCFA62
:1039E0008CE0F969786AFCF79FFD0346002B0CBF59
:1039F00001230023DBB2002B1CD0434811F007FB4E
:103A00000346FB714549464804F0DEF8FA79FB7C31
:103A10001146184603F090FBFA7CFB79009313469D
:103A2000404A6421404808F0BFFC3F493C4804F04C
:103A3000F3F863E07969786AFCF776FD0346002BBA
:103A40000CBF01230023DBB2002B1FD02E4811F046
:103A5000CEFAB8603549324804F0B6F8FB7CB96854
:103A6000184603F023FBFC7CB86806F0A1FE024672
:103A70000B46CDE9002323462D4A64212A4808F04D
:103A800093FC2949264804F0C7F837E0B969786AF9
:103A9000FCF74AFD0346002B0CBF01230023DBB2D9
:103AA000002B20D0184811F0B2FA0346BB74164818
:103AB00011F08BFAF8601F49194804F085F8B97CB9
:103AC000FB7CFA68184611F0F3F9FA7CFB68009366
:103AD0001346194A6421144808F066FC124910483C
:103AE00004F09AF80AE0154A64210F4808F05CFCDB
:103AF00004E013490A4804F08FF800BF00BF2C37D8
:103B0000BD4690BDD80A0020740C0020185F01004B
:103B10006C5E0100705E0100446001001C5F0100EA
:103B2000700C0020D85E0100140B0020345F0100EF
:103B3000F45E01004C5F0100645F0100B05E0100B3
:103B4000405E010080B582B002AF0F4B1B78012BA5
:103B500012D10D4B5B68184606F02AFE02460B4652
:103B6000CDE90023094A6421094808F01DFC0849F1
:103B7000084804F051F803E00749064804F04CF8FF
:103B800000BFBD4680BD00BFD80A00206C5F0100A9
:103B9000140B0020700C0020785F010080B500AF8E
:103BA000094B1B78012B08D10849094804F00CF88F
:103BB0000849074804F030F803E00749044804F0D6
:103BC0002BF800BF80BD00BFD80A0020945F010021
:103BD000700C00209C5F0100785F010080B586B00A
:103BE00000AF0E4B1B78012B0FD13B461A46152117
:103BF000642011F022F90A490A4803F0E5FF3B4628
:103C00001946084804F008F803E00749054804F09D
:103C100003F800BF1837BD4680BD00BFD80A00209A
:103C2000B05F0100700C0020785F010080B500AF2C
:103C3000164B1B78012B15D1144B5B78012B11D13E
:103C40001349144803F0C0FF134B1B78012B04D118
:103C50001249104803F0E0FF16E011490D4803F047
:103C6000DBFF11E0094B1B78002B08D1074B5B7879
:103C7000012B04D10B49074803F0CEFF04E00A49A9
:103C8000044803F0C9FF00BF00BF80BDD80A002070
:103C9000BC5F0100700C0020C4090020C85F010057
:103CA000CC5F0100785F0100405E010080B588B004
:103CB00002AF484B1B78012B40F084803B461A46EC
:103CC0001521642011F0B9F84349444803F07CFF02
:103CD0003B461946414803F09FFF3E4B5B68184640
:103CE00006F066FD02460B46CDE900233C4A6421FE
:103CF0003C4808F059FB3B49384803F08DFF3A49EE
:103D0000364803F061FF3949344803F085FF384BEA
:103D10001B68184606F04CFD02460B46CDE9002311
:103D2000344A64212F4808F03FFB2E492B4803F00A
:103D300073FF2F4B5B68184606F03AFD02460B46B0
:103D4000CDE900232C4A6421264808F02DFB2549A3
:103D5000224803F061FF294B1B68184606F028FD36
:103D600002460B46CDE90023254A64211D4808F090
:103D70001BFB1C49194803F04FFF204B5B6818469A
:103D800006F016FD02460B46CDE900231D4A6421CC
:103D9000144808F009FB1349104803F03DFF174B86
:103DA0009B68184606F004FD02460B46CDE9002349
:103DB000154A64210B4808F0F7FA0A49074803F04E
:103DC0002BFF03E01149054803F026FF00BF183719
:103DD000BD4680BDD80A0020D05F0100700C0020D5
:103DE000E05F0100140B0020FC5F01009C5F0100FC
:103DF000C8090020106001002C600100600C002048
:103E0000486001006460010080600100785F01008B
:103E100080B584B002AF244B1B78012B3AD1224BE2
:103E20009B78012B36D1214810F09EFC02460B46B0
:103E30001046194606F0CEFF03467B601B4810F083
:103E40005DFC02460B461046194606F0C3FF0346CA
:103E50003B60386806F0ACFC02460B46CDE9002317
:103E6000134A6421134808F09FFA1249124803F0DC
:103E7000ABFE786806F09CFC02460B46CDE90023B9
:103E80000E4A64210B4808F08FFA0A490A4803F0E9
:103E9000C3FE04E00A49084803F0BEFE00BF00BFAD
:103EA0000837BD4680BD00BFD80A0020C8090020E1
:103EB0009C600100140B0020700C0020B460010015
:103EC000305F010080B582B002AF1A4B1B78012B26
:103ED00028D1184B9B78012B24D1174B9B6818468F
:103EE00006F066FC02460B46CDE90023134A642126
:103EF000134808F059FA1249124803F065FE0E4BB8
:103F0000DB68184606F054FC02460B46CDE9002358
:103F10000D4A64210A4808F047FA0949094803F0A4
:103F20007BFE04E00949074803F076FE00BF00BFAE
:103F3000BD4680BDD80A0020C8090020C460010029
:103F4000140B0020700C0020E0600100305F0100C5
:103F500080B500AF234B1B78012B2ED1214B5B7812
:103F6000012B2AD12049214803F02EFE204B1B694A
:103F7000184606F01DFC02460B461C4803F074FD73
:103F80001C491A4803F020FE194B5B69184606F0DD
:103F90000FFC02460B46154803F066FD1549134811
:103FA00003F012FE124B9B69184606F001FC024614
:103FB0000B460E4803F07AFD11E00A4B1B78002BEC
:103FC00008D1084B5B78012B04D10B49074803F05B
:103FD00023FE04E00949054803F01EFE00BF00BFB0
:103FE00080BD00BFD80A0020F4600100700C0020E2
:103FF000C8090020FC600100785F0100405E0100FC
:1040000080B500AF234B1B78012B2ED1214B5B7861
:10401000012B2AD12049214803F0D6FD204BDB6932
:10402000184606F0C5FB02460B461C4803F01CFD73
:104030001C491A4803F0C8FD194B1B6A184606F0C4
:10404000B7FB02460B46154803F00EFD1549134811
:1040500003F0BAFD124B5B6A184606F0A9FB024654
:104060000B460E4803F022FD11E00A4B1B78002B93
:1040700008D1084B5B78012B04D10B49074803F0AA
:10408000CBFD04E00949054803F0C6FD00BF00BFB1
:1040900080BD00BFD80A002000610100700C002024
:1040A000C8090020FC600100785F0100405E01004B
:1040B00080B500AF234B1B78012B2ED1214B5B78B1
:1040C000012B2AD12049214803F07EFD204B9B6A19
:1040D000184606F06DFB02460B461C4803F0C4FC74
:1040E0001C491A4803F070FD194BDB6A184606F0AC
:1040F0005FFB02460B46154803F0B6FC1549134812
:1041000003F062FD124B1B6B184606F051FB024692
:104110000B460E4803F0CAFC11E00A4B1B78002B3B
:1041200008D1084B5B78012B04D10B49074803F0F9
:1041300073FD04E00949054803F06EFD00BF00BFB0
:1041400080BD00BFD80A002008610100700C00206B
:10415000C8090020FC600100785F0100405E01009A
:1041600080B500AF2C4B1B78012B40D12A4B5B78DC
:10417000012B3CD129492A4803F026FD294B93F80D
:104180003430012B04D12849254803F01DFD03E0FC
:104190002649234803F018FD224B9B6B184606F076
:1041A00007FB02460B461E4803F05EFC20491C48F4
:1041B00003F00AFD1B4BDB6B184606F0F9FA0246CA
:1041C0000B46174803F050FC1949154803F0FCFC56
:1041D000144B1B6C184606F0EBFA02460B461048CF
:1041E00003F042FC13490E4803F016FD11E00A4BA0
:1041F0001B78002B08D1084B5B78012B04D10E49AA
:10420000074803F009FD04E00C49054803F004FDEC
:1042100000BF00BF80BD00BFD80A002010610100B0
:10422000700C0020C8090020186101002061010005
:10423000FC600100CC610100785F0100405E01007C
:1042400080B582B000AF184810F0BFFE7860174B01
:104250001B78012B11D1154B5B78012B0DD17A689E
:104260001521642010F024FE1149124803F0ACFC23
:104270007968104803F0D0FC11E00C4B1B78002B40
:1042800008D10A4B5B78012B04D10B49094803F094
:10429000C3FC04E00949074803F0BEFC00BF00BFAF
:1042A0000837BD4680BD00BF740C0020D80A00202E
:1042B00028610100700C0020785F0100405E010061
:1042C00080B582B000AF1D4810F0A1FE0346002B60
:1042D00014BF01230023FB71194B1B78012B16D14E
:1042E000174B5B78012B12D1FB79012B07D1154BB2
:1042F00001221A701449154803F08EFC19E0114B85
:1043000000221A701249114803F086FC11E00C4B90
:104310001B78002B08D10A4B5B78012B04D10D4987
:104320000A4803F079FC04E00B49084803F074FCE8
:1043300000BF00BF0837BD4680BD00BF740C002021
:10434000D80A0020C409002034610100700C00204C
:1043500040610100785F0100405E010080B584B0DB
:1043600002AF2C4810F063FE02460B461046194679
:1043700006F030FD03467B60274B1B78012B33D1C1
:10438000254B9B78012B2FD1244B1B68194678684D
:1043900007F03AF80346002B03D0204B1B687B60E4
:1043A0000BE01E4B5B681946786807F00FF8034670
:1043B000002B02D04FF000037B6079681748FCF7B0
:1043C00003FD164B9B68184606F0F2F902460B46B1
:1043D000CDE90023124A6421124807F0E5FF114994
:1043E000114803F019FC11E00B4B1B78002B08D18E
:1043F000094B9B78012B04D10C490B4803F00CFCB2
:1044000004E00B49084803F007FC00BF00BF083771
:10441000BD4680BD740C0020D80A0020C8090020C9
:1044200050610100140B0020700C0020785F010027
:10443000305F010080B584B002AF244810F0F7FD72
:1044400002460B461046194606F0C4FC03467B6044
:104450001F4B1B78012B23D11D4B5B78012B1FD1E8
:104460001C49786806F0D0FF0346002B01D0194B99
:104470007B6079681848FCF763FD174BDB681846CA
:1044800006F096F902460B46CDE90023134A642153
:10449000134807F089FF1249124803F0BDFB11E0F1
:1044A0000B4B1B78002B08D1094B5B78012B04D1F7
:1044B0000D490C4803F0B0FB04E00C49094803F037
:1044C000ABFB00BF00BF0837BD4680BD740C0020A9
:1044D000D80A002000004041C80900205C610100AA
:1044E000140B0020700C0020785F0100405E01007A
:1044F00080B500AF354B1B78012B52D1334B5B7825
:10450000012B4ED1324810F072FD0346314A13613F
:104510002F4810F06CFD03462E4A53612C4810F0D2
:1045200066FD03462B4A93612A4B1B6919462C20D2
:1045300002F0BCFD274B5B691946302002F0B6FD46
:10454000244B9B691946342002F0B0FD22492348D0
:1045500003F03AFB1F4B1B69184606F029F9024687
:104560000B461E4803F080FA1D491C4803F02CFB43
:10457000184B5B69184606F01BF902460B461748B4
:1045800003F072FA1649154803F01EFB114B9B69A4
:10459000184606F00DF902460B46104803F086FA5D
:1045A00011E00A4B1B78002B08D1084B5B78012BDC
:1045B00004D10C49094803F02FFB04E00A490748DD
:1045C00003F02AFB00BF00BF80BD00BFD80A002057
:1045D000740C0020C809002068610100700C0020E4
:1045E000FC600100785F0100405E010080B500AF13
:1045F000354B1B78012B52D1334B5B78012B4ED1BD
:10460000324810F0F4FC0346314AD3612F4810F0D1
:10461000EEFC03462E4A13622C4810F0E8FC0346D9
:104620002B4A53622A4BDB691946202002F03EFDDB
:10463000274B1B6A1946242002F038FD244B5B6A85
:104640001946282002F032FD2249234803F0BCFA23
:104650001F4BDB69184606F0ABF802460B461E48B6
:1046600003F002FA1D491C4803F0AEFA184B1B6A0E
:10467000184606F09DF802460B46174803F0F4F979
:104680001649154803F0A0FA114B5B6A184606F06C
:104690008FF802460B46104803F008FA11E00A4B67
:1046A0001B78002B08D1084B5B78012B04D10C49F7
:1046B000094803F0B1FA04E00A49074803F0ACFAEC
:1046C00000BF00BF80BD00BFD80A0020740C0020CE
:1046D000C809002070610100700C0020FC6001001E
:1046E000785F0100405E010080B500AF354B1B785C
:1046F000012B52D1334B5B78012B4ED1324810F055
:1047000076FC0346314A93622F4810F070FC034652
:104710002E4AD3622C4810F06AFC03462B4A1363DE
:104720002A4B9B6A1946142002F0C0FC274BDB6A17
:104730001946182002F0BAFC244B1B6B19461C20AA
:1047400002F0B4FC2249234803F03EFA1F4B9B6A57
:10475000184606F02DF802460B461E4803F084F971
:104760001D491C4803F030FA184BDB6A184606F066
:104770001FF802460B46174803F076F9164915480C
:1047800003F022FA114B1B6B184606F011F8024693
:104790000B46104803F08AF911E00A4B1B78002BF6
:1047A00008D1084B5B78012B04D10C49094803F070
:1047B00033FA04E00A49074803F02EFA00BF00BFAD
:1047C00080BD00BFD80A0020740C0020C80900205A
:1047D00078610100700C0020FC600100785F01002E
:1047E000405E010080B500AF364B1B78012B55D1E0
:1047F000344B5B78012B51D1334810F0F8FB034662
:10480000324A9363304810F0F2FB03462F4AD363D9
:104810002D4810F0ECFB03462C4A13642B480FF094
:10482000D9FF2A4B9B6B19463C2002F03FFC274BDB
:10483000DB6B1946402002F039FC244B1B6C1946F7
:10484000442002F033FC2249224803F0BDF91F4BFB
:104850009B6B184605F0ACFF02460B461D4803F063
:1048600003F91D491B4803F0AFF9184BDB6B1846E1
:1048700005F09EFF02460B46164803F0F5F8164970
:10488000144803F0A1F9114B1B6C184605F090FF7A
:1048900002460B460F4803F009F911E0094B1B785B
:1048A000002B08D1074B5B78012B04D10B49094839
:1048B00003F0B2F904E00A49064803F0ADF900BF7D
:1048C00000BF80BDD80A0020740C0020C809002059
:1048D00010610100700C0020FC600100785F010095
:1048E000405E010098B500AF224B1B78012B2DD103
:1048F000204B5B78012B29D11F4810F098FB012336
:104900001C464FF000024FF0000306F011FA034678
:10491000002B01D000231C46E2B2184B83F8342050
:10492000164B93F834301946382002F005FC134B2F
:1049300093F83430012B04D11149124803F06CF97B
:1049400016E011490F4803F067F911E0094B1B7895
:10495000002B08D1074B5B78012B04D10B49094888
:1049600003F05AF904E00A49064803F055F900BF7C
:1049700000BF98BDD80A0020740C0020C809002090
:1049800080610100700C00208C610100785F0100E3
:10499000405E01002DE9F04F8DB00AAF534B1B78FC
:1049A000012B40F08C80514B9B78012B40F087808D
:1049B0004F4810F02CFB0346DAB24E4B1A704C48AD
:1049C00010F025FB0346DAB24A4B5A70484810F003
:1049D0000EFB0346474A5360454810F008FB034668
:1049E000444A9360424810F002FB0346414AD360B8
:1049F0003F4810F0FCFA03463E4A13613C4810F071
:104A0000F6FA03463B4A53613A4B6C4603F11002F7
:104A100092E8030084E803000FCB00F073FA03462A
:104A2000002B0CBF01230023DBB2002B59D1314BEB
:104A30006C4603F10C0207CA84E807000ECB2E482F
:104A400000F06AFE2B4B1B781E462A4B5B6818460B
:104A500005F0AEFE04460D46264B9B68184605F051
:104A6000A7FE80468946234BDB68184605F0A0FE6A
:104A700082468B461F4B1B69184605F099FEC7E915
:104A800000011C4B5B69184605F092FE02460B467E
:104A9000CDE90823D7E90023CDE90623CDE904AB0E
:104AA000CDE90289CDE900453346144A6421144812
:104AB00007F07AFC1249134803F0AEF812E00B4BF2
:104AC0001B78002B08D1094B9B78012B04D10E4990
:104AD0000C4803F0A1F805E00C490A4803F09CF8E3
:104AE00000E000BF0C37BD46BDE8F08FD80A0020BB
:104AF000740C0020E00A0020600C00209861010086
:104B0000140B0020700C0020785F0100305F010062
:104B100090B585B004AF2D4B1B78012B40D12B4BAA
:104B20009B78012B3CD12A4810F071FA0346DAB287
:104B3000284B1A70264810F06AFA0346DAB2254B61
:104B40005A70244B6C4603F1100292E8030084E88B
:104B500003000FCB00F0B4F90346002B0CBF012378
:104B60000023DBB2002B2DD11A4B6C4603F10C0253
:104B700007CA84E807000ECB174801F031FB154B3C
:104B80001B781A46134B5B7800931346134A642133
:104B9000134807F009FC1249124803F03DF812E0EF
:104BA0000A4B1B78002B08D1084B9B78012B04D1B2
:104BB0000D490C4803F030F805E00C49094803F0B2
:104BC0002BF800E000BF0437BD4690BDD80A002096
:104BD000740C0020F80A0020600C0020D061010055
:104BE000140B0020700C0020785F0100305F010082
:104BF00098B500AF1A4B9B78012B2AD1194810F0B9
:104C000016FA01231C464FF000024FF0000306F095
:104C10008FF80346002B01D000231C46E2B2104B54
:104C20005A700F4B5B7819465C2002F085FA0E49EA
:104C30000E4802F0C9FF0A4B5B78012B04D10C49E6
:104C40000A4802F0E9FF08E00A49084802F0E4FFD8
:104C500003E00949054802F0DFFF00BF98BD00BF2F
:104C6000D80A0020740C0020E4610100700C0020C0
:104C7000C85F0100CC5F0100305F010080B500AF6C
:104C80000B4B9B78002B03D1094B01229A7002E059
:104C9000074B00229A70064B9B7819465D2002F064
:104CA0004BFA0449044802F0B7FF00BF80BD00BFC3
:104CB000D80A0020305F0100700C002080B582B05F
:104CC00000AF114810F0A3F90346DBB27B607B68AC
:104CD000012B09D100F020F80C4B00221A700C496E
:104CE0000C4802F071FF0BE07B68022B05D100F04D
:104CF00013F8064B01221A7002E0044B00221A70CE
:104D000000BF0837BD4680BD740C0020060F002090
:104D100088670100700C002080B582B000AF3A496E
:104D20003A4802F051FF02F085F803461946374829
:104D300002F05EFE3649354802F046FF354B9B686F
:104D4000184605F035FD02460B46304802F0D8FE05
:104D50002F492E4802F038FF2E4BDB68184605F02D
:104D600027FD02460B46294802F0ECFE2849274859
:104D700002F02AFF27480FF0F7FC02460B462348B3
:104D800002F0E0FE2249214802F01EFF21480FF008
:104D9000B5FC02460B461D4802F0B2FE1C491B48FA
:104DA00002F012FF1B480FF073FC02460B46104640
:104DB000194605F0EFFF03461946144802F036FE87
:104DC0001349124802F000FF0123FB71FB79082B05
:104DD00015D8FB7919460F4800F026FA0346184605
:104DE00006F032FB03461946084802F01FFE084948
:104DF000064802F0E9FEFB790133FB71E6E700BFEC
:104E00000837BD4680BD00BFEC610100700C00207A
:104E1000FC600100C809002080B500AF4FF0000120
:104E20000748FBF7D1FF074800F0C6FB064B1B788D
:104E3000012B03D10549064802F0EEFE00BF80BDFC
:104E4000C8090020600C0020C4090020F86101009E
:104E5000700C002080B500AF0849094802F0DCFE64
:104E6000084B5B78002B03D1074802F0EDFF02E00E
:104E7000054802F0C7FF00BF80BD00BF0862010007
:104E8000700C0020D80A0020740C002080B582B07D
:104E900000AF7860074B1B78012B07D10649074804
:104EA00002F092FE7968054802F0B6FE00BF0837AE
:104EB000BD4680BDC409002048620100700C00207E
:104EC00084B080B500AF07F1080C8CE80F003B7A86
:104ED000022B02D03B7A042B08D17B7A0F2B05D909
:104EE0000649074802F098FE002300E00123184617
:104EF000BD46BDE8804004B0704700BF506201006D
:104F0000700C002084B0B0B586B004AF07F118046F
:104F100084E80F006A4607F1280393E8030082E85B
:104F2000030007F118030FCBFFF7CAFF0346002B5E
:104F30000CBF01230023DBB2002B01D0002365E16D
:104F4000FB69954A52681146184606F03FFA034637
:104F5000002B08D0FB694FF00001184606F054FA08
:104F60000346002B09D1FB698B4A1268114618468B
:104F700006F04AFA0346002B05D08849884802F01B
:104F80004BFE002342E13B6A4FF00001184606F059
:104F90003BFA0346002B08D03B6A4FF07E5118467F
:104FA00006F014FA0346002B07D13B6A7D491846E8
:104FB00006F02AFA0346002B05D07B49784802F018
:104FC0002BFE002322E13B6AFA691146184606F0DF
:104FD00013F903467549184606F05AF80346744912
:104FE000184606F055F803467B606B4B9B681946E4
:104FF000786806F0EBF90346002B1AD0786805F0C4
:10500000D7FB04460D46644B9B68184605F0D0FB61
:1050100002460B46CDE90223CDE90045654A6421ED
:10502000654807F0C1F964495D4802F0F5FD0023C9
:10503000ECE03B7E022B03D03B7E042B40F0C8808B
:105040007B6A4FF07E51184606F0C0F90346002BEC
:1050500007D17B6A5349184606F0D6F90346002B60
:1050600005D056494E4802F0D7FD0023CEE07B6ABA
:10507000FA691146184606F0BFF803464B49184630
:1050800006F006F803464A49184606F001F80346BA
:105090003B60414B9B681946386806F097F9034618
:1050A000002B1AD0386805F083FB04460D463A4BB6
:1050B0009B68184605F07CFB02460B46CDE90223AF
:1050C000CDE900453B4A64213B4807F06DF93A4978
:1050D000334802F0A1FD002398E03B6A7A6A11464A
:1050E000184605F0CDFE03462E49184606F08CF909
:1050F0000346002B05D03249294802F08DFD0023DC
:1051000084E0BB6A4FF00001184606F05FF90346E1
:10511000002B07D1BB6A2B49184606F075F90346E8
:10512000002B05D028491E4802F076FD00236DE0D3
:105130003B6A19461B4806F05FF803461C46BB6AEB
:105140001946204806F058F803461946204606F04E
:105150003DF90346002B19D1BB6A1A49184606F0DF
:105160004BF803461C467B6A0E49184606F044F885
:1051700003461946204605F083FE03464FF07E5154
:10518000184606F041F90346002B21D00F49044888
:1051900002F042FD002339E0600C00207062010043
:1051A000700C00200000C8428C6201000000204109
:1051B00000007A44A4620100140B0020CC620100BC
:1051C000DC6201000000B443EC62010008630100EE
:1051D0003B7E032B02D03B7E042B16D1FB6A4FF0A3
:1051E0000001184606F0F2F80346002B07D1FB6ACF
:1051F0000A49184606F008F90346002B05D008496D
:10520000084802F009FD002300E001231846083792
:10521000BD46BDE8B04004B0704700BF0000B443D5
:1052200024630100700C002080B582B000AF78606C
:1052300039603B680733184601F074FA0346184694
:1052400005F0CEFE03461549184605F021FF03463A
:1052500019467A683B6814339B00134459607A6896
:105260003B6814339B0013445B680D49184606F0F5
:10527000ADF80346002B07D07A683B6814339B00D7
:1052800013444FF000025A607A683B6814339B0065
:1052900013445B6818460837BD4680BD0B5FA63FC8
:1052A0000000404080B584B000AF7860002001F07D
:1052B0008DF903465A3BFB81FB8948F6A042934295
:1052C00010D9FB89C3F57F43FF33184605F08CFEE8
:1052D00003460E49184605F0DBFE03461A467B6876
:1052E0005A650CE0FB89184605F07EFE0346074927
:1052F000184605F0CDFE03461A467B685A657B6862
:105300005B6D18461037BD4680BD00BF3A877B3EB7
:1053100080B582B000AF78607B681B681F49184673
:1053200006F04AF80346002B08D17B681B681C492D
:10533000184606F041F80346002B10D0122001F069
:105340009BF90346184605F04BFE034615491846DF
:1053500005F09EFE03461A467B681A6518E07B68D6
:105360001B681149184606F027F80346002B0FD09A
:10537000122001F081F90346184605F031FE03467C
:105380000A49184605F084FE03461A467B681A65EA
:105390007B681B6D18460837BD4680BD0000FA4487
:1053A00000803B45CA048D3F00A08C45F9561C4047
:1053B00080B483B000AF0346FB7197F9073003F068
:1053C0001F02074997F907305B09012000FA02F232
:1053D00041F8232000BF0C37BD4680BC704700BF9A
:1053E00000E100E080B483B000AF7860074B1B6839
:1053F0000133064A1360054B1B68012B00D9FEE7F9
:105400007B6818460C37BD4680BC7047980B00205F
:1054100080B582B000AF0346FB71FB795B000133BE
:105420000122194606480FF070FAFB795B00002252
:10543000194603480FF069FA00BF0837BD4680BD22
:10544000C0F00F4080B582B000AF0346FB71FB791E
:105450005B0001330022194606480FF056FAFB792B
:105460005B000122194603480FF04FFA00BF0837CE
:10547000BD4680BDC0F00F4080B582B000AF4FF494
:1054800000714B4810F009F80023FB71FB79072BE2
:1054900000F28980FA79474913469B0013449B0028
:1054A0000B441B78002B7AD0FA79424913469B00B3
:1054B00013449B000B4404331968FA793D481346A2
:1054C0009B0013449B00034408331B68994204D19A
:1054D000FB791846FFF79CFF61E0FA7935491346DE
:1054E0009B0013449B000B440C331968FA79314834
:1054F00013469B0013449B00034408331B68013B85
:10550000994216D1FB791846FFF79CFFFA79294991
:1055100013469B0013449B000B440C331B68591C1F
:10552000244813469B0013449B0003440C3319602A
:1055300035E0FA791F4913469B0013449B000B4446
:105540000C331968FA791B4813469B0013449B00DF
:10555000034404331B68013B99420ED1FB79184682
:10556000FFF756FFFA79134913469B0013449B003B
:105570000B440C3300221A6011E0FA790D491346EE
:105580009B0013449B000B440C331B68591C0948B7
:1055900013469B0013449B0003440C331960FB79B2
:1055A0000133FB7172E700BF0837BD4680BD00BF05
:1055B00000800340B80B00202DE9B04F88B000AF49
:1055C0007861082001F05CFD02467B691A600C20BE
:1055D00001F056FD02467B695A60102001F050FD33
:1055E00002467B699A60474803F048FE454B022219
:1055F0001A704449444803F0C1FD022003F086F9C3
:1056000003469B0800229846914642464B46911815
:1056100039605B417B60D7E9002312EB080443EB60
:1056200009054FF000024FF000036B0143EAD46319
:10563000620114EB020A45EB030B1AEB0803BB6093
:105640004BEB0903FB60314A4FF00003D7E902013D
:1056500005F01AFF02460B46134619462A480FF07A
:105660002BF94FF4007128480FF0D4FE3E200FF0C4
:105670000FF9012124480FF02CF90023FB77FB7F61
:10568000072B39D8FA7F224913469B0013449B000D
:105690000B4400221A70FA7F1D4913469B001344E5
:1056A0009B000B44043300221A60FA7F184913460A
:1056B0009B0013449B000B44083300221A60FA7FBE
:1056C000134913469B0013449B000B440C330022E8
:1056D0001A60FB7F5B000133002219460D480FF072
:1056E00014F9FB7F5B00012219460A480FF00DF9FF
:1056F000FB7F0133FB77C2E700BF2037BD46BDE823
:10570000B08F00BF9C0B00200080034040420F0080
:10571000B80B0020C0F00F4084B0B0B586B000AF29
:10572000786007F12C0080E80E0097F82C30013BE0
:10573000032B00F23D8501A252F823F04D570000E3
:10574000E5580000175B00007F5D00000023FB753B
:10575000FB7D072B00F22E8597F82D301A46FB7D36
:1057600042FA03F303F00103002B00F0B180FA7D4D
:10577000594913469B0013449B000B441B78032B91
:1057800009D0FA7D544913469B0013449B000B44F7
:105790001B78042B26D1FA7D4F4913469B001344F6
:1057A0009B000B4400221A70FA7D4B4913469B0064
:1057B00013449B000B44043300221A60FA7D4649CF
:1057C00013469B0013449B000B44083300221A60CD
:1057D000FA7D414913469B0013449B000B440C3354
:1057E00000221A60FA7D3C4913469B0013449B003B
:1057F0000B4401221A703B6B4FF00001184605F074
:1058000003FE0346002B40D07B6B3449184605F05D
:10581000DDFD0346002B38D03B6B1946304805F0C0
:10582000EBFC0346FC7D184605F00EFE02462A49B5
:1058300023469B0023449B000B4404331A60FA7DEB
:10584000254913469B0013449B000B4404331B68FB
:10585000184605F0C5FB04467B6B2049184605F049
:10586000CBFC03461946204605F012FC0346FC7D9E
:10587000184605F0E9FD0246174923469B002344DC
:105880009B000B4408331A6013E0FA7D124913465B
:105890009B0013449B000B44043300221A60FA7DE2
:1058A0000D4913469B0013449B000B440833002210
:1058B0001A60FA7D084913469B0013449B000B4471
:1058C0000C3300221A60FB7D1946786800F0A8FDB1
:1058D000FB7D0133FB753BE7B80B00200000C8429D
:1058E00000401C460023BB75BB7D032B00F2648483
:1058F00097F82D301A46BB7D42FA03F303F00103FB
:10590000002B00F00481BA7D9B4913469B00134491
:105910009B000B441B78032B09D0BA7D9649134694
:105920009B0013449B000B441B78042B26D1BA7DAB
:10593000914913469B0013449B000B4400221A70AC
:10594000BA7D8D4913469B0013449B000B440433DE
:1059500000221A60BA7D884913469B0013449B00BD
:105960000B44083300221A60BA7D834913469B001A
:1059700013449B000B440C3300221A60BB7D5B0078
:10598000FB73FA7B7C4913469B0013449B000B443A
:1059900002221A703B6B1946784805F02DFC03462D
:1059A000FC7B184605F050FD0246734923469B00D8
:1059B00023449B000B4404331A60FA7B6E49134660
:1059C0009B0013449B000B4404331B68184605F0EE
:1059D00007FB04467B6B6A49184605F00DFC03463D
:1059E0001946204605F054FB0346FC7B184605F09B
:1059F0002BFD0246604923469B0023449B000B4439
:105A000008331A60FA7B5C4913469B0013449B00E1
:105A10000B440C3300221A60FB7B1946786800F0B7
:105A2000FFFCBB7D5B00DBB20133BB73BA7B524929
:105A300013469B0013449B000B4402221A703B6BDD
:105A400019464E4805F0D8FB0346BC7B184605F0C6
:105A5000FBFC0246484923469B0023449B000B4421
:105A600004331A60BA7B444913469B0013449B00DD
:105A70000B4404331B68184605F0B2FA0446BB6BAE
:105A80003F49184605F0B8FB03461946204605F085
:105A9000FFFA0346BC7B184605F0D6FC02463649A1
:105AA00023469B0023449B000B4408331A60BA7BB7
:105AB000314913469B0013449B000B4404331B687D
:105AC000184605F08DFA0446FB6B2E49184605F082
:105AD00093FB034619464FF07E5005F0CFF903467D
